{
  "address": "0xCf7Ed3AccA5a467e9e704C703E8D87F634fB0Fc9",
  "abi": [
    {
      "inputs": [
        {
          "internalType": "uint256",
          "name": "min",
          "type": "uint256"
        },
        {
          "internalType": "address",
          "name": "vrfCoordinator",
          "type": "address"
        },
        {
          "internalType": "uint64",
          "name": "subscriptionId",
          "type": "uint64"
        },
        {
          "internalType": "bytes32",
          "name": "gasLane",
          "type": "bytes32"
        },
        {
          "internalType": "uint32",
          "name": "callbackGasLimit",
          "type": "uint32"
        },
        {
          "internalType": "uint32",
          "name": "updateInterval",
          "type": "uint32"
        }
      ],
      "stateMutability": "nonpayable",
      "type": "constructor"
    },
    {
      "inputs": [
        {
          "internalType": "address",
          "name": "have",
          "type": "address"
        },
        {
          "internalType": "address",
          "name": "want",
          "type": "address"
        }
      ],
      "name": "OnlyCoordinatorCanFulfill",
      "type": "error"
    },
    {
      "inputs": [],
      "name": "Raffel__Transfer_Failed",
      "type": "error"
    },
    {
      "inputs": [],
      "name": "Raffle__NoEnoughETH",
      "type": "error"
    },
    {
      "inputs": [],
      "name": "Raffle__NotOpen",
      "type": "error"
    },
    {
      "inputs": [
        {
          "internalType": "uint256",
          "name": "contractBalance",
          "type": "uint256"
        },
        {
          "internalType": "uint256",
          "name": "playersLength",
          "type": "uint256"
        },
        {
          "internalType": "uint256",
          "name": "raffleState",
          "type": "uint256"
        }
      ],
      "name": "Raffle__UpKeepNotNeeded",
      "type": "error"
    },
    {
      "anonymous": false,
      "inputs": [
        {
          "indexed": true,
          "internalType": "uint256",
          "name": "requestId",
          "type": "uint256"
        }
      ],
      "name": "RequestedRaffleWinner",
      "type": "event"
    },
    {
      "anonymous": false,
      "inputs": [
        {
          "indexed": true,
          "internalType": "address",
          "name": "player",
          "type": "address"
        }
      ],
      "name": "lotteryInEnter",
      "type": "event"
    },
    {
      "anonymous": false,
      "inputs": [
        {
          "indexed": true,
          "internalType": "address",
          "name": "winner",
          "type": "address"
        }
      ],
      "name": "winnerList",
      "type": "event"
    },
    {
      "inputs": [
        {
          "internalType": "bytes",
          "name": "",
          "type": "bytes"
        }
      ],
      "name": "checkUpkeep",
      "outputs": [
        {
          "internalType": "bool",
          "name": "upkeepNeeded",
          "type": "bool"
        },
        {
          "internalType": "bytes",
          "name": "",
          "type": "bytes"
        }
      ],
      "stateMutability": "view",
      "type": "function"
    },
    {
      "inputs": [],
      "name": "enterInLottery",
      "outputs": [],
      "stateMutability": "payable",
      "type": "function"
    },
    {
      "inputs": [
        {
          "internalType": "uint256",
          "name": "index",
          "type": "uint256"
        }
      ],
      "name": "getIndexedPlayer",
      "outputs": [
        {
          "internalType": "address",
          "name": "",
          "type": "address"
        }
      ],
      "stateMutability": "view",
      "type": "function"
    },
    {
      "inputs": [],
      "name": "getLatestTimeStamp",
      "outputs": [
        {
          "internalType": "uint256",
          "name": "",
          "type": "uint256"
        }
      ],
      "stateMutability": "view",
      "type": "function"
    },
    {
      "inputs": [],
      "name": "getLatestWinner",
      "outputs": [
        {
          "internalType": "address",
          "name": "",
          "type": "address"
        }
      ],
      "stateMutability": "view",
      "type": "function"
    },
    {
      "inputs": [],
      "name": "getNumWords",
      "outputs": [
        {
          "internalType": "uint256",
          "name": "",
          "type": "uint256"
        }
      ],
      "stateMutability": "pure",
      "type": "function"
    },
    {
      "inputs": [],
      "name": "getNumberOfPlayers",
      "outputs": [
        {
          "internalType": "uint256",
          "name": "",
          "type": "uint256"
        }
      ],
      "stateMutability": "view",
      "type": "function"
    },
    {
      "inputs": [],
      "name": "getRaffleState",
      "outputs": [
        {
          "internalType": "uint256",
          "name": "",
          "type": "uint256"
        }
      ],
      "stateMutability": "view",
      "type": "function"
    },
    {
      "inputs": [],
      "name": "getRequiredAmountToEnter",
      "outputs": [
        {
          "internalType": "uint256",
          "name": "",
          "type": "uint256"
        }
      ],
      "stateMutability": "view",
      "type": "function"
    },
    {
      "inputs": [],
      "name": "i_interval",
      "outputs": [
        {
          "internalType": "uint32",
          "name": "",
          "type": "uint32"
        }
      ],
      "stateMutability": "view",
      "type": "function"
    },
    {
      "inputs": [
        {
          "internalType": "bytes",
          "name": "",
          "type": "bytes"
        }
      ],
      "name": "performUpkeep",
      "outputs": [],
      "stateMutability": "nonpayable",
      "type": "function"
    },
    {
      "inputs": [
        {
          "internalType": "uint256",
          "name": "requestId",
          "type": "uint256"
        },
        {
          "internalType": "uint256[]",
          "name": "randomWords",
          "type": "uint256[]"
        }
      ],
      "name": "rawFulfillRandomWords",
      "outputs": [],
      "stateMutability": "nonpayable",
      "type": "function"
    }
  ],
  "transactionHash": "0x78d6f7babbe7a7292e26c5a3d9d95193447caa02824a782f59f69ed132462faf",
  "args": [
    "10000000000000000",
    "0x5FbDB2315678afecb367f032d93F642f64180aa3",
    "1",
    "0xd89b2bf150e3b9e13446986e571fb9cab24b13cea0a43ea20a6049a85cc807cc",
    "500000",
    "30"
  ],
  "numDeployments": 1,
  "solcInputHash": "16934871680a7f2d834062e480821f39",
  "bytecode": "0x6101606040523480156200001257600080fd5b506040516200183a3803806200183a8339818101604052810190620000389190620001bc565b848073ffffffffffffffffffffffffffffffffffffffff1660808173ffffffffffffffffffffffffffffffffffffffff1660601b81525050508560a081815250508473ffffffffffffffffffffffffffffffffffffffff1660c08173ffffffffffffffffffffffffffffffffffffffff1660601b815250508367ffffffffffffffff1660e08167ffffffffffffffff1660c01b815250508261014081815250508163ffffffff166101008163ffffffff1660e01b815250508063ffffffff166101208163ffffffff1660e01b815250506000600160006101000a81548160ff02191690836001811115620001315762000130620002c4565b5b0217905550426002819055505050505050506200037a565b6000815190506200015a81620002f8565b92915050565b600081519050620001718162000312565b92915050565b60008151905062000188816200032c565b92915050565b6000815190506200019f8162000346565b92915050565b600081519050620001b68162000360565b92915050565b60008060008060008060c08789031215620001dc57620001db620002f3565b5b6000620001ec89828a0162000177565b9650506020620001ff89828a0162000149565b95505060406200021289828a01620001a5565b94505060606200022589828a0162000160565b93505060806200023889828a016200018e565b92505060a06200024b89828a016200018e565b9150509295509295509295565b6000620002658262000276565b9050919050565b6000819050919050565b600073ffffffffffffffffffffffffffffffffffffffff82169050919050565b6000819050919050565b600063ffffffff82169050919050565b600067ffffffffffffffff82169050919050565b7f4e487b7100000000000000000000000000000000000000000000000000000000600052602160045260246000fd5b600080fd5b620003038162000258565b81146200030f57600080fd5b50565b6200031d816200026c565b81146200032957600080fd5b50565b620003378162000296565b81146200034357600080fd5b50565b6200035181620002a0565b81146200035d57600080fd5b50565b6200036b81620002b0565b81146200037757600080fd5b50565b60805160601c60a05160c05160601c60e05160c01c6101005160e01c6101205160e01c61014051611441620003f9600039600061060501526000818161079101526107f50152600061064901526000610626015260006105c90152600081816103a501526108a40152600081816102db015261032f01526114416000f3fe6080604052600436106100a75760003560e01c806353a2c19a1161006457806353a2c19a14610189578063673ab11e146101b45780636919207d146101f15780636e04ff0d1461021c578063d651205b1461025a578063fd6673f514610285576100a7565b8063115cbaf5146100ac5780631fe543e3146100d7578063320229eb1461010057806333592fef1461012b5780634585e33b146101355780634fdd3b641461015e575b600080fd5b3480156100b857600080fd5b506100c16102b0565b6040516100ce9190611053565b60405180910390f35b3480156100e357600080fd5b506100fe60048036038101906100f99190610e47565b6102d9565b005b34801561010c57600080fd5b50610115610399565b6040516101229190611053565b60405180910390f35b6101336103a3565b005b34801561014157600080fd5b5061015c60048036038101906101579190610d57565b610512565b005b34801561016a57600080fd5b50610173610711565b6040516101809190610f8c565b60405180910390f35b34801561019557600080fd5b5061019e61073b565b6040516101ab9190611053565b60405180910390f35b3480156101c057600080fd5b506101db60048036038101906101d69190610ded565b610748565b6040516101e89190610f8c565b60405180910390f35b3480156101fd57600080fd5b5061020661078f565b60405161021391906110a5565b60405180910390f35b34801561022857600080fd5b50610243600480360381019061023e9190610da4565b6107b3565b604051610251929190610fd0565b60405180910390f35b34801561026657600080fd5b5061026f6108a0565b60405161027c9190611053565b60405180910390f35b34801561029157600080fd5b5061029a6108c8565b6040516102a79190611053565b60405180910390f35b6000600160009054906101000a900460ff1660018111156102d4576102d3611335565b5b905090565b7f000000000000000000000000000000000000000000000000000000000000000073ffffffffffffffffffffffffffffffffffffffff163373ffffffffffffffffffffffffffffffffffffffff161461038b57337f00000000000000000000000000000000000000000000000000000000000000006040517f1cf993f4000000000000000000000000000000000000000000000000000000008152600401610382929190610fa7565b60405180910390fd5b61039582826108d4565b5050565b6000600254905090565b7f00000000000000000000000000000000000000000000000000000000000000003410156103fd576040517f1659bc4a00000000000000000000000000000000000000000000000000000000815260040160405180910390fd5b6000600181111561041157610410611335565b5b600160009054906101000a900460ff16600181111561043357610432611335565b5b1461046a576040517f1425571c00000000000000000000000000000000000000000000000000000000815260040160405180910390fd5b6000339080600181540180825580915050600190039060005260206000200160009091909190916101000a81548173ffffffffffffffffffffffffffffffffffffffff021916908373ffffffffffffffffffffffffffffffffffffffff1602179055503373ffffffffffffffffffffffffffffffffffffffff167fce102677f69c8fb15592fb409c30cb1d337bec162f00b0339898e97b3753c2c760405160405180910390a2565b600061052c604051806020016040528060008152506107b3565b5090508061059b5747600080549050600160009054906101000a900460ff16600181111561055d5761055c611335565b5b6040517f3a8d60860000000000000000000000000000000000000000000000000000000081526004016105929392919061106e565b60405180910390fd5b60018060006101000a81548160ff021916908360018111156105c0576105bf611335565b5b021790555060007f000000000000000000000000000000000000000000000000000000000000000073ffffffffffffffffffffffffffffffffffffffff16635d3b1d307f00000000000000000000000000000000000000000000000000000000000000007f000000000000000000000000000000000000000000000000000000000000000060037f000000000000000000000000000000000000000000000000000000000000000060016040518663ffffffff1660e01b815260040161068a959493929190611000565b602060405180830381600087803b1580156106a457600080fd5b505af11580156106b8573d6000803e3d6000fd5b505050506040513d601f19601f820116820180604052508101906106dc9190610e1a565b9050807fcd6e45c8998311cab7e9d4385596cac867e20a0587194b954fa3a731c93ce78b60405160405180910390a250505050565b6000600360009054906101000a900473ffffffffffffffffffffffffffffffffffffffff16905090565b6000600161ffff16905090565b600080828154811061075d5761075c611364565b5b9060005260206000200160009054906101000a900473ffffffffffffffffffffffffffffffffffffffff169050919050565b7f000000000000000000000000000000000000000000000000000000000000000081565b6000606060008060018111156107cc576107cb611335565b5b600160009054906101000a900460ff1660018111156107ee576107ed611335565b5b14905060007f000000000000000000000000000000000000000000000000000000000000000063ffffffff16600254426108289190611169565b119050600080471190506000806000805490501190508380156108485750825b80156108515750815b801561085a5750805b9550856040518060400160405280600381526020017f30783000000000000000000000000000000000000000000000000000000000008152509550955050505050915091565b60007f0000000000000000000000000000000000000000000000000000000000000000905090565b60008080549050905090565b600080600080549050836000815181106108f1576108f0611364565b5b602002602001015161090391906112a6565b8154811061091457610913611364565b5b9060005260206000200160009054906101000a900473ffffffffffffffffffffffffffffffffffffffff16905080600360006101000a81548173ffffffffffffffffffffffffffffffffffffffff021916908373ffffffffffffffffffffffffffffffffffffffff1602179055506000600160006101000a81548160ff021916908360018111156109a8576109a7611335565b5b0217905550600067ffffffffffffffff8111156109c8576109c7611393565b5b6040519080825280602002602001820160405280156109f65781602001602082028036833780820191505090505b5060009080519060200190610a0c929190610b22565b50426002819055506000600360009054906101000a900473ffffffffffffffffffffffffffffffffffffffff1673ffffffffffffffffffffffffffffffffffffffff1647604051610a5c90610f77565b60006040518083038185875af1925050503d8060008114610a99576040519150601f19603f3d011682016040523d82523d6000602084013e610a9e565b606091505b5050905080610ad9576040517fafb4746200000000000000000000000000000000000000000000000000000000815260040160405180910390fd5b8173ffffffffffffffffffffffffffffffffffffffff167f54ea1631ac4de14440b7ddc5c58ddeafd390f4d5531c33c650c3ea3b102c0e3e60405160405180910390a250505050565b828054828255906000526020600020908101928215610b9b579160200282015b82811115610b9a5782518260006101000a81548173ffffffffffffffffffffffffffffffffffffffff021916908373ffffffffffffffffffffffffffffffffffffffff16021790555091602001919060010190610b42565b5b509050610ba89190610bac565b5090565b5b80821115610bc5576000816000905550600101610bad565b5090565b6000610bdc610bd7846110e5565b6110c0565b90508083825260208201905082856020860282011115610bff57610bfe6113cc565b5b60005b85811015610c2f5781610c158882610d2d565b845260208401935060208301925050600181019050610c02565b5050509392505050565b6000610c4c610c4784611111565b6110c0565b905082815260208101848484011115610c6857610c676113d1565b5b610c73848285611233565b509392505050565b600082601f830112610c9057610c8f6113c7565b5b8135610ca0848260208601610bc9565b91505092915050565b60008083601f840112610cbf57610cbe6113c7565b5b8235905067ffffffffffffffff811115610cdc57610cdb6113c2565b5b602083019150836001820283011115610cf857610cf76113cc565b5b9250929050565b600082601f830112610d1457610d136113c7565b5b8135610d24848260208601610c39565b91505092915050565b600081359050610d3c816113f4565b92915050565b600081519050610d51816113f4565b92915050565b60008060208385031215610d6e57610d6d6113db565b5b600083013567ffffffffffffffff811115610d8c57610d8b6113d6565b5b610d9885828601610ca9565b92509250509250929050565b600060208284031215610dba57610db96113db565b5b600082013567ffffffffffffffff811115610dd857610dd76113d6565b5b610de484828501610cff565b91505092915050565b600060208284031215610e0357610e026113db565b5b6000610e1184828501610d2d565b91505092915050565b600060208284031215610e3057610e2f6113db565b5b6000610e3e84828501610d42565b91505092915050565b60008060408385031215610e5e57610e5d6113db565b5b6000610e6c85828601610d2d565b925050602083013567ffffffffffffffff811115610e8d57610e8c6113d6565b5b610e9985828601610c7b565b9150509250929050565b610eac8161119d565b82525050565b610ebb816111af565b82525050565b610eca816111bb565b82525050565b6000610edb82611142565b610ee5818561114d565b9350610ef5818560208601611242565b610efe816113e0565b840191505092915050565b6000610f1660008361115e565b9150610f21826113f1565b600082019050919050565b610f35816111c5565b82525050565b610f4481611221565b82525050565b610f53816111f3565b82525050565b610f62816111fd565b82525050565b610f718161120d565b82525050565b6000610f8282610f09565b9150819050919050565b6000602082019050610fa16000830184610ea3565b92915050565b6000604082019050610fbc6000830185610ea3565b610fc96020830184610ea3565b9392505050565b6000604082019050610fe56000830185610eb2565b8181036020830152610ff78184610ed0565b90509392505050565b600060a0820190506110156000830188610ec1565b6110226020830187610f68565b61102f6040830186610f2c565b61103c6060830185610f59565b6110496080830184610f3b565b9695505050505050565b60006020820190506110686000830184610f4a565b92915050565b60006060820190506110836000830186610f4a565b6110906020830185610f4a565b61109d6040830184610f4a565b949350505050565b60006020820190506110ba6000830184610f59565b92915050565b60006110ca6110db565b90506110d68282611275565b919050565b6000604051905090565b600067ffffffffffffffff821115611100576110ff611393565b5b602082029050602081019050919050565b600067ffffffffffffffff82111561112c5761112b611393565b5b611135826113e0565b9050602081019050919050565b600081519050919050565b600082825260208201905092915050565b600081905092915050565b6000611174826111f3565b915061117f836111f3565b925082821015611192576111916112d7565b5b828203905092915050565b60006111a8826111d3565b9050919050565b60008115159050919050565b6000819050919050565b600061ffff82169050919050565b600073ffffffffffffffffffffffffffffffffffffffff82169050919050565b6000819050919050565b600063ffffffff82169050919050565b600067ffffffffffffffff82169050919050565b600061122c826111c5565b9050919050565b82818337600083830152505050565b60005b83811015611260578082015181840152602081019050611245565b8381111561126f576000848401525b50505050565b61127e826113e0565b810181811067ffffffffffffffff8211171561129d5761129c611393565b5b80604052505050565b60006112b1826111f3565b91506112bc836111f3565b9250826112cc576112cb611306565b5b828206905092915050565b7f4e487b7100000000000000000000000000000000000000000000000000000000600052601160045260246000fd5b7f4e487b7100000000000000000000000000000000000000000000000000000000600052601260045260246000fd5b7f4e487b7100000000000000000000000000000000000000000000000000000000600052602160045260246000fd5b7f4e487b7100000000000000000000000000000000000000000000000000000000600052603260045260246000fd5b7f4e487b7100000000000000000000000000000000000000000000000000000000600052604160045260246000fd5b600080fd5b600080fd5b600080fd5b600080fd5b600080fd5b600080fd5b6000601f19601f8301169050919050565b50565b6113fd816111f3565b811461140857600080fd5b5056fea26469706673582212207751cad2739cd6209c1fda86a3d09b2783a75471a89fbdc8e6d9b346eecee54c64736f6c63430008070033",
  "devdoc": {
    "kind": "dev",
    "methods": {},
    "version": 1
  },
  "userdoc": {
    "kind": "user",
    "methods": {
      "constructor": {
        "notice": "function declerations "
      },
      "getLatestWinner()": {
        "notice": "views and pure function"
      }
    },
    "version": 1
  },
  "storageLayout": {
    "storage": [
      {
        "astId": 1159,
        "contract": "contracts/Raffle.sol:Raffle",
        "label": "s_players",
        "offset": 0,
        "slot": "0",
        "type": "t_array(t_address_payable)dyn_storage"
      },
      {
        "astId": 1181,
        "contract": "contracts/Raffle.sol:Raffle",
        "label": "s_state",
        "offset": 0,
        "slot": "1",
        "type": "t_enum(RaffleState)1156"
      },
      {
        "astId": 1183,
        "contract": "contracts/Raffle.sol:Raffle",
        "label": "s_lastTimeStamp",
        "offset": 0,
        "slot": "2",
        "type": "t_uint256"
      },
      {
        "astId": 1185,
        "contract": "contracts/Raffle.sol:Raffle",
        "label": "s_latestWinner",
        "offset": 0,
        "slot": "3",
        "type": "t_address"
      }
    ],
    "types": {
      "t_address": {
        "encoding": "inplace",
        "label": "address",
        "numberOfBytes": "20"
      },
      "t_address_payable": {
        "encoding": "inplace",
        "label": "address payable",
        "numberOfBytes": "20"
      },
      "t_array(t_address_payable)dyn_storage": {
        "base": "t_address_payable",
        "encoding": "dynamic_array",
        "label": "address payable[]",
        "numberOfBytes": "32"
      },
      "t_enum(RaffleState)1156": {
        "encoding": "inplace",
        "label": "enum Raffle.RaffleState",
        "numberOfBytes": "1"
      },
      "t_uint256": {
        "encoding": "inplace",
        "label": "uint256",
        "numberOfBytes": "32"
      }
    }
  }
}